S011000067656E657261646F722E737265635C
S11300000C9434000C9451000C9451000C94510045
S11300100C9451000C9451000C9451000C94510018
S11300200C9451000C9451000C9451000C94510008
S11300300C9451000C9451000C9451000C945100F8
S11300400C9451000C9451000C9473000C945100C6
S11300500C94B7000C9451000C9451000C94510072
S11300600C9451000C94510011241FBECFEFD8E022
S1130070DEBFCDBF11E0A0E0B1E0E0E9F2E002C0F4
S113008005900D92A632B107D9F721E0A6E2B1E0BE
S113009001C01D92AB3AB207E1F70E9453000C94E1
S11300A046010C94000087E60E94F4000E94FE00C2
S11300B00E9404010E940A01789480E091E00E9469
S11300C01601C1ECD0E080912A018130E1F76BE6A2
S11300D071E08BE291E00E943F0188818064888313
S11300E010922A01F0CF1F920F920FB60F92112493
S11300F02F933F938F939F93EF93FF93CF93DF932C
S11301001F92CDB7DEB719828091C6008983898199
S11301108D3089F080912801909129019C012F5FF5
S11301203F4F30932901209328012981FC01E5598F
S1130130FE4F20830EC0E0912801F0912901E5597A
S1130140FE4F1082109229011092280181E08093C1
S11301502A010F90DF91CF91FF91EF919F918F91A1
S11301603F912F910F900FBE0F901F9018951F92E3
S11301700F920FB60F9211242F938F939F93EF93A7
S1130180FF938091260190912701FC01E55DFE4FCC
S11301902081222381F0FC01E55DFE4F8081809364
S11301A0C600809126019091270101969093270122
S11301B0809326010FC0E6ECF0E08DE080838AE0B6
S11301C080831092270110922601E1ECF0E08081F7
S11301D08F7B8083FF91EF919F918F912F910F904F
S11301E00FBE0F901F9018951092C10096E0909347
S11301F0C2001092C5008093C4000895E1ECF0E0C1
S11302008081886080830895E1ECF0E080818061E2
S113021080830895E1ECF0E0808180688083089514
S1130220E0ECF0E0808185FFFDCF0895CF92DF926E
S1130230EF92FF920F931F93CF93FC01208122230F
S1130240B1F07C018C01C0E00F2EF6ECCF2ED12C46
S1130250F02D0E941001F8019081F6019083CF5F88
S113026087010C0F111DF80190819111F2CFCF91EC
S11302701F910F91FF90EF90DF90CF900895FB01B5
S1130280DC0101900D920020E1F70895F894FFCF6E
S113029050726F6772616D6120636F6E20696E7456
S11302A0657272757063696F6E6573206465205240
S10902B058200A0D0000B5
S9030000FC
