S011000067656E657261646F722E737265635C
S11300000C9434000C9451000C9451000C94510045
S11300100C9451000C9451000C9451000C94510018
S11300200C9451000C9451000C9451000C94510008
S11300300C9451000C9451000C9451000C945100F8
S11300400C9451000C9451000C9467000C945100D2
S11300500C948D000C9451000C9451000C9451009C
S11300600C9451000C94510011241FBECFEFD8E022
S1130070DEBFCDBF11E0A0E0B1E0E4EEF2E002C0EB
S113008005900D92A632B107D9F721E0A6E2B1E0BE
S113009001C01D92AB3AB207E1F70E9453000C94E1
S11300A070010C94000087E60E94200180E091E03A
S11300B00E94F700809128018130E1F789E291E004
S11300C00E9464010E942A0110922801F3CF1F921A
S11300D00F920FB60F9211242F933F934F935F9378
S11300E06F937F938F939F93AF93BF93EF93FF93FC
S11300F00E94360180932801FF91EF91BF91AF9147
S11301009F918F917F916F915F914F913F912F912B
S11301100F900FBE0F901F9018951F920F920FB65D
S11301200F9211242F933F934F935F936F937F9379
S11301308F939F93AF93BF93EF93FF938091260187
S113014090912701FC01E75DFE4F2081222381F07D
S1130150FC01E75DFE4F80818093C60080912601FB
S113016090912701019690932701809326010CC05A
S1130170E6ECF0E08DE080838AE080831092270132
S1130180109226010E943001FF91EF91BF91AF912F
S11301909F918F917F916F915F914F913F912F919B
S11301A00F900FBE0F901F9018951092C10096E00B
S11301B09093C2001092C5008093C4000895E1ECAE
S11301C0F0E08081886080830895E1ECF0E0808134
S11301D0806180830895E1ECF0E080818068808311
S11301E00895E0ECF0E0808185FFFDCF0895CF9283
S11301F0DF92EF92FF920F931F93CF93FC01208124
S11302002223B1F07C018C01C0E00F2EF6ECCF2E3E
S1130210D12CF02D0E94F100F8019081F601908319
S1130220CF5F87010C0F111DF80190819111F2CF5E
S1130230CF911F910F91FF90EF90DF90CF90089591
S11302400E94D5000E94DF000E94E5000E94EB009E
S113025078940895E1ECF0E08081806480830895CF
S1130260E1ECF0E080818F7B80830895CF93DF936E
S11302701F92CDB7DEB719828091C6008983898128
S11302808D3091F08091690190916A019C012F5FFA
S11302903F4F30936A01209369012981FC01E5599C
S11302A0FE4F208380E00CC0E0916901F0916A0167
S11302B0E559FE4F108210926A011092690181E0A3
S11302C00F90DF91CF9108956BE671E00E94690170
S11302D00895FB01DC0101900D920020E1F70895DF
S10702E0F894FFCFBC
S11302E450726F6772616D6120636F6E20696E7402
S11302F4657272757063696F6E65732064652052EC
S109030458200A0D000060
S9030000FC
