S011000067656E657261646F722E737265635C
S11300000C9434000C9449000C9449000C9449005D
S11300100C9449000C9449000C9449000C94490038
S11300200C9449000C9449000C9449000C94490028
S11300300C9449000C9449000C9449000C94490018
S11300400C9449000C9449000C9449000C94490008
S11300500C9449000C9449000C9449000C944900F8
S11300600C9449000C94490011241FBECFEFD8E032
S1130070DEBFCDBF11E0A0E0B1E0EEECF1E002C0E4
S113008005900D92A430B107D9F70E944B000C944F
S1130090E5000C9400000E94760080E091E00E944C
S11300A066000E946B00FFCF880F991F9C0140E0FF
S11300B050E060E072E18AE790E00E947E00215007
S11300C03109309389002093880008950E94BF006D
S11300D00E945400089589E080938100089510924D
S11300E0810083E299E10E94540008950E946F0008
S11300F082E084B980E4809380000895052E97FB04
S11301001EF400940E94950057FD07D00E949D00A4
S113011007FC03D04EF40C9495005095409530950F
S113012021953F4F4F4F5F4F08959095809570955F
S113013061957F4F8F4F9F4F0895A1E21A2EAA1BFE
S1130140BB1BFD010DC0AA1FBB1FEE1FFF1FA21783
S1130150B307E407F50720F0A21BB30BE40BF50B80
S1130160661F771F881F991F1A9469F76095709509
S1130170809590959B01AC01BD01CF010895FC01D0
S113018088279927E89421912032E9F3293010F047
S11301902E30C8F32B3241F02D3239F4689404C068
S11301A00E94DD00820F911D219120532A30C0F35B
S11301B01EF4909581959F4F08957AE0979F902D16
S11101C0879F802D910D11240895F894FFCF90
S10701CE3130300098
S9030000FC
