S011000067656E657261646F722E737265635C
S11300000C943B000C9458000C9458000C94580029
S11300100C9458000C9458000C9458000C945800FC
S11300200C9458000C9458000C9458000C945800EC
S11300300C9458000C9458000C9458000C945800DC
S11300400C9458000C9458000C9462000C945800C2
S11300500C9488000C9458000C9458000C9458008C
S11300600C9458000C9458003F0144014E01530174
S113007058015D01620111241FBECFEFD8E0DEBF3D
S1130080CDBF11E0A0E0B1E0EEE3F5E002C00590E1
S11300900D92A03DB107D9F724E0A0EDB1E001C075
S11300A01D92A63DB207E1F70E945A000C949D02EE
S11300B00C94000087E60E94B20180ED91E00E945A
S11300C03101FBCF1F920F920FB60F9211242F9381
S11300D03F934F935F936F937F938F939F93AF93CC
S11300E0BF93EF93FF930E94CC018093D001FF91C3
S11300F0EF91BF91AF919F918F917F916F915F919C
S11301004F913F912F910F900FBE0F901F90189514
S11301101F920F920FB60F9211242F933F934F9378
S11301205F936F937F938F939F93AF93BF93EF935B
S1130130FF930E940C02FF91EF91BF91AF919F91A9
S11301408F917F916F915F914F913F912F910F907C
S11301500FBE0F901F90189587E091E00E94430214
S11301600E94C00182E0089583E191E00E9443026D
S11301700E94C00182E0089566ED73E080E091E0A2
S11301800E948E028DE191E00E94430280E091E0A2
S11301900E94430288E991E00E9443020E94C00148
S11301A082E008958AE291E00E9443020E94C00125
S11301B082E0089566ED73E00E94850221E0892BB8
S11301C009F020E0822F089586ED93E00E945C02FE
S11301D09C012456310981E02D3A364208F080E032
S11301E0089586ED93E00E9407028DE391E00E945A
S11301F0DA00811112C080E491E00E94DA008111DA
S11302000EC084E491E00E94DA0081110AC00E94C9
S1130210E400811108C087E0089584E0089585E032
S1130220089581E0089586E0089588E491E00E94AD
S1130230430285E791E00E9443028BE991E00E942A
S113024043020E94C001089585E0EBECF1E0A0E0D8
S1130250B1E001900D928A95E1F70E94150182E0C8
S11302600895E09106014E2F50E0FA013197E730EE
S1130270F10560F5DC01EC5CFF4F0C9456020E9422
S113028024018093060108952C91222319F01C92D5
S113029083E001C082E08093060108950E94F1008A
S11302A08093060108950E94AC008093060108958E
S11302B00E94B4008093060108950E94BC008093BC
S11302C0060108950E94D2008093060108951092B9
S11302D0C10096E09093C2001092C5008093C400C0
S11302E00895E1ECF0E08081886080830895E1EC7A
S11302F0F0E08081806180830895E1ECF0E080810A
S1130300806880830895E0ECF0E0808185FFFDCF74
S11303100895CF92DF92EF92FF920F931F93CF93A2
S1130320FC0120812223B1F07C018C01C0E00F2E5E
S1130330F6ECCF2ED12CF02D0E948301F801908190
S1130340F6019083CF5F87010C0F111DF801908196
S11303509111F2CFCF911F910F91FF90EF90DF9009
S1130360CF9008950E9467010E9471010E94770155
S11303700E947D0189E991E00E94890178940895A1
S1130380E1ECF0E08081806480830895E1ECF0E0AA
S113039080818F7B80830895CF93DF931F92CDB7A5
S11303A0DEB78DE089838091C600898389818D3091
S11303B0F1F08091D3019091D4018F3F910529F000
S11303C024F01092D4011092D3018091D301909122
S11303D0D4019C012F5F3F4F3093D4012093D3016C
S11303E02981FC01EA52FD4F208380E00CC0E0919A
S11303F0D301F091D401EA52FD4F10821092D4013E
S11304001092D30181E00F90DF91CF91089566EDB2
S113041072E00E948E020895CF93DF938091D10100
S11304209091D201FC01EA52FE4F20812223A1F0D7
S11304308F3F910509F084F49C012F5F3F4F309367
S1130440D2012093D101FC01EA52FE4FC0810E94E7
S11304508301C093C60014C00E948301C6ECD0E09F
S11304608DE088830E9483018AE088831092D20100
S11304701092D1011092D6011092D5010E94C601AA
S1130480DF91CF910895FC0101900020E9F73197A5
S1130490E81BF90B2091D5012F5FE20FE093D50102
S11304A0BC0186ED91E00E947A020895EE0FFF1FD1
S11304B00590F491E02D0994FC0188279927E8948C
S11304C021912032E9F3293010F02E30C8F32B3279
S11304D041F02D3239F4689404C00E949502820FD1
S11304E0911D219120532A30C0F31EF490958195DB
S11304F09F4F0895FB01DC010D900020E9F711974F
S113050001900D920020E1F70895FB01DC018D912B
S1130510019080190110D9F3990B0895FB01DC01B6
S113052001900D920020E1F708957AE0979F902DB5
S1110530879F802D910D11240895F894FFCF1C
S113053E36343335000001456E63656E6469646F4D
S113054E0D0A004170616761646F0D0A00467265A1
S113055E6375656E6369613A2000436F6D616E6405
S113056E6F20696E76616C69646F0D0A004F4E00E0
S113057E4F4646005253540047656E657261646F70
S113058E72206465207365F1616C6573206469671C
S113059E6974616C65732070726F6772616D6162EC
S11305AE6C650D0A00496E67726573652066726527
S11305BE6375656E6369612028313030202D2031DA
S11305CE3030303020487A290D0A004F4E3A2045FB
S11305DE6E63656E6469646F207C204F46463A20D4
S11305EE4170616761646F207C205253543A2052EB
S11305FE65696E69636961720D0A003634333500BC
S9030000FC
