S011000067656E657261646F722E737265635C
S11300000C9434000C9451000C9451000C94510045
S11300100C9451000C9451000C9451000C94510018
S11300200C9451000C9451000C9451000C94510008
S11300300C9451000C9451000C9451000C945100F8
S11300400C9451000C9451000C946B000C945100CE
S11300500C9491000C9451000C9451000C94510098
S11300600C9451000C94510011241FBECFEFD8E022
S1130070DEBFCDBF11E0A0E0B1E0EEEFF2E002C0E0
S113008005900D92A632B107D9F721E0A6E2B1E0BE
S113009001C01D92AB3EB207E1F70E9453000C94DD
S11300A07D010C94000087E60E94000180E091E04D
S11300B00E94D700809126018130E1F787E291E028
S11300C00E94440187E291E00E9470010E940A01AB
S11300D010922601EFCF1F920F920FB60F921124A8
S11300E02F933F934F935F936F937F938F939F933C
S11300F0AF93BF93EF93FF930E9416018093260161
S1130100FF91EF91BF91AF919F918F917F916F91EB
S11301105F914F913F912F910F900FBE0F901F90C1
S113012018951F920F920FB60F9211242F933F939D
S11301304F935F936F937F938F939F93AF93BF93EB
S1130140EF93FF930E944901FF91EF91BF91AF910B
S11301509F918F917F916F915F914F913F912F91DB
S11301600F900FBE0F901F9018951092C10096E04B
S11301709093C2001092C5008093C4000895E1ECEE
S1130180F0E08081886080830895E1ECF0E0808174
S1130190806180830895E1ECF0E080818068808351
S11301A00895E0ECF0E0808185FFFDCF0895CF92C3
S11301B0DF92EF92FF920F931F93CF93FC01208164
S11301C02223B1F07C018C01C0E00F2EF6ECCF2E7F
S11301D0D12CF02D0E94D100F8019081F60190837A
S11301E0CF5F87010C0F111DF80190819111F2CF9F
S11301F0CF911F910F91FF90EF90DF90CF900895D2
S11302000E94B5000E94BF000E94C5000E94CB005E
S113021078940895E1ECF0E080818064808308950F
S1130220E1ECF0E080818F7B80830895CF93DF93AE
S11302301F92CDB7DEB719828091C6008983898168
S11302408D3091F08091690190916A019C012F5F3A
S11302503F4F30936A01209369012981FC01E555E0
S1130260FE4F208380E00CC0E0916901F0916A01A7
S1130270E555FE4F108210926A011092690181E0E7
S11302800F90DF91CF9108956BEA71E00E9476019F
S113029008958091670190916801FC01E559FE4F32
S11302A02081222381F0FC01E559FE4F8081809357
S11302B0C60080916701909168010196909368014E
S11302C0809367010895E6ECF0E08DE080838AE096
S11302D0808310926801109267010E9410010895B2
S11302E0BC018BE691E00E9476010895FB01DC01DC
S11102F001900D920020E1F70895F894FFCFDD
S11302FE50726F6772616D6120636F6E20696E74E8
S113030E657272757063696F6E65732064652052D1
S109031E58200A0D000046
S9030000FC
