S011000067656E657261646F722E737265635C
S11300000C943B000C9458000C9458000C94580029
S11300100C9458000C9458000C9458000C945800FC
S11300200C9458000C9458000C9458000C945800EC
S11300300C9458000C9458000C9458000C945800DC
S11300400C9458000C9458000C9462000C945800C2
S11300500C9488000C9458000C9458000C9458008C
S11300600C9458000C94580049014E0158015D014C
S1130070620167016C0111241FBECFEFD8E0DEBF1F
S1130080CDBF11E0A0E0B1E0EAE3F6E002C00590E4
S11300900D92A03DB107D9F724E0A0EDB1E001C075
S11300A01D92A63DB207E1F70E945A000C941B036F
S11300B00C94000083E30E94F90180ED91E00E941A
S11300C03B01FBCF1F920F920FB60F9211242F9377
S11300D03F934F935F936F937F938F939F93AF93CC
S11300E0BF93EF93FF930E9413028093D001FF917B
S11300F0EF91BF91AF919F918F917F916F915F919C
S11301004F913F912F910F900FBE0F901F90189514
S11301101F920F920FB60F9211242F933F934F9378
S11301205F936F937F938F939F93AF93BF93EF935B
S1130130FF930E946802FF91EF91BF91AF919F914D
S11301408F917F916F915F914F913F912F910F907C
S11301500FBE0F901F9018950E94ED0187E091E06B
S11301600E949F020E94070282E008950E94F1010A
S113017083E191E00E949F020E94070282E00895B9
S113018066ED73E080E091E00E940C0380E091E072
S11301900E94E4018DE191E00E949F0280E091E0E1
S11301A00E949F0288E991E00E949F020E94070238
S11301B082E008958AE291E00E949F020E94070271
S11301C082E0089566ED73E00E94030321E0892B29
S11301D009F020E0822F089586ED93E00E94DA0270
S11301E09C012456310981E02D3A364208F080E022
S11301F0089586ED93E00E9463028DE391E00E94EE
S1130200E200811112C080E491E00E94E2008111B9
S11302100EC084E491E00E94E20081110AC00E94B1
S1130220EC00811108C087E0089584E0089585E01A
S1130230089581E0089586E0089588E491E00E949D
S11302409F0285E791E00E949F028BE991E00E9462
S11302509F020E94070208950E94F40185E0EBECDE
S1130260F1E0A0E0B1E001900D928A95E1F70E94DF
S11302701D0182E00895E09106014E2F50E0FA013D
S11302803197E730F10560F5DC01EC5CFF4F0C942D
S1130290D4020E942C018093060108952C912223FC
S11302A019F01C9283E001C082E080930601089556
S11302B00E94F9008093060108950E94AC00809387
S11302C0060108950E94B6008093060108950E94D5
S11302D0C0008093060108950E94DA00809306010D
S11302E008951092C10096E09093C2001092C50048
S11302F08093C4000895E1ECF0E0808188608083FD
S11303000895E1ECF0E08081806180830895E1EC60
S1130310F0E08081806880830895E0ECF0E08081E3
S113032085FFFDCF0895CF92DF92EF92FF920F9356
S11303301F93CF93FC0120812223B1F07C018C0117
S1130340C0E00F2EF6ECCF2ED12CF02D0E948D01A3
S1130350F8019081F6019083CF5F87010C0F111D86
S1130360F80190819111F2CFCF911F910F91FF90DD
S1130370EF90DF90CF9008959B01245631092D3AD8
S11303803642A0F49B01AC01220F331F441F551FBA
S113039060E072E18AE790E00E94B20221503109E4
S11303A0309389002093880081E0089580E00895C7
S11303B063E279E180E090E00E94BC0182E084B9CC
S11303C080E48093800008950E94DA02BC01990FB2
S11303D0880B990B0E94BC01089589E080938100E9
S11303E00895109281000895109281000E94D8010E
S11303F008950E9471010E947B010E9481010E9464
S1130400870189E991E00E94930178940895E1ECD1
S1130410F0E08081806480830895E1ECF0E08081E5
S11304208F7B80830895CF93DF931F92CDB7DEB780
S11304308DE089838091C600898389818D3079F12B
S11304408091D3019091D4018F3F910549F044F0FC
S11304501092D4011092D3018981883071F42CC098
S11304602981283051F41816190644F50197909300
S1130470D4018093D30180E022C08091D301909174
S1130480D4019C012F5F3F4F3093D4012093D301BB
S11304902981FC01EA52FD4F208380E010C0E091E5
S11304A0D301F091D401EA52FD4F10821092D4018D
S11304B01092D30181E003C080E001C080E00F907E
S11304C0DF91CF91089566ED72E00E940C030895C8
S11304D0CF93DF938091D1019091D201FC01EA5234
S11304E0FE4F20812223A1F08F3F910509F084F46F
S11304F09C012F5F3F4F3093D2012093D101FC0127
S1130500EA52FE4FC0810E948D01C093C60014C000
S11305100E948D01C6ECD0E08DE088830E948D019D
S11305208AE088831092D2011092D1011092D601F0
S11305301092D5010E940D02DF91CF910895FC0124
S113054001900020E9F73197E81BF90B2091D501C0
S11305502F5FE20FE093D501BC0186ED91E00E948C
S1130560F8020895A1E21A2EAA1BBB1BFD010DC0BF
S1130570AA1FBB1FEE1FFF1FA217B307E407F5074F
S113058020F0A21BB30BE40BF50B661F771F881F2B
S1130590991F1A9469F760957095809590959B01C1
S11305A0AC01BD01CF010895EE0FFF1F0590F4913A
S11305B0E02D0994FC0188279927E89421912032A1
S11305C0E9F3293010F02E30C8F32B3241F02D32EC
S11305D039F4689404C00E941303820F911D219181
S11305E020532A30C0F31EF4909581959F4F0895AF
S11305F0FB01DC010D900020E9F7119701900D92A9
S11306000020E1F70895FB01DC018D910190801930
S11306100110D9F3990B0895FB01DC0101900D92AF
S11306200020E1F708957AE0979F902D879F802D11
S10D0630910D11240895F894FFCFF2
S113063A36343335000001456E63656E6469646F50
S113064A0D0A004170616761646F0D0A00467265A4
S113065A6375656E6369613A2000436F6D616E6408
S113066A6F20696E76616C69646F0D0A004F4E00E3
S113067A4F4646005253540047656E657261646F73
S113068A72206465207365F1616C6573206469671F
S113069A6974616C65732070726F6772616D6162EF
S11306AA6C650D0A00496E6772657365206672652A
S11306BA6375656E6369612028313030202D2031DD
S11306CA3030303020487A290D0A004F4E3A2045FE
S11306DA6E63656E6469646F207C204F46463A20D7
S11306EA4170616761646F207C205253543A2052EE
S11306FA65696E69636961720D0A003634333500BF
S9030000FC
