S011000067656E657261646F722E737265635C
S11300000C9434000C9451000C9451000C94510045
S11300100C9451000C9451000C9451000C94510018
S11300200C9451000C9451000C9451000C94510008
S11300300C9451000C9451000C9451000C945100F8
S11300400C9451000C9451000C9471000C945100C8
S11300500C9497000C9451000C9451000C94510092
S11300600C9451000C94510011241FBECFEFD8E022
S1130070DEBFCDBF11E0A0E0B1E0E8E7F3E002C0ED
S113008005900D92AC33B107D9F722E0ACE3B1E0AF
S113009001C01D92AC30B207E1F70E9453000C94EA
S11300A0BA010C94000087E60E94060180E091E00A
S11300B00E94DD0080913C018130E1F78DE391E005
S11300C00E9456018DE391E00E948F010E9410016D
S11300D084E291E00E948F010E94100110923C0181
S11300E0E9CF1F920F920FB60F9211242F933F93D3
S11300F04F935F936F937F938F939F93AF93BF932C
S1130100EF93FF930E941C0180933C01FF91EF91B8
S1130110BF91AF919F918F917F916F915F914F911B
S11301203F912F910F900FBE0F901F9018951F9223
S11301300F920FB60F9211242F933F934F935F9317
S11301406F937F938F939F93AF93BF93EF93FF939B
S11301500E945B01FF91EF91BF91AF919F918F91AD
S11301607F916F915F914F913F912F910F900FBEAF
S11301700F901F9018951092C10096E09093C200C2
S11301801092C5008093C4000895E1ECF0E08081F2
S1130190886080830895E1ECF0E080818061808351
S11301A00895E1ECF0E08081806880830895E0ECBC
S11301B0F0E0808185FFFDCF0895CF92DF92EF922A
S11301C0FF920F931F93CF93FC0120812223B1F060
S11301D07C018C01C0E00F2EF6ECCF2ED12CF02D3B
S11301E00E94D700F8019081F6019083CF5F8701C8
S11301F00C0F111DF80190819111F2CFCF911F9135
S11302000F91FF90EF90DF90CF9008950E94BB0074
S11302100E94C5000E94CB000E94D10078940895EA
S1130220E1ECF0E08081806480830895E1ECF0E00B
S113023080818F7B80830895CF93DF931F92CDB706
S1130240DEB78DE089838091C600898389818D30F2
S1130250E9F080917F01909180018534910524F02B
S11302601092800110927F0180917F019091800112
S11302709C012F5F3F4F3093800120937F012981A0
S1130280FC01E953FE4F208380E00CC0E0917F0124
S1130290F0918001E953FE4F108210928001109278
S11302A07F0181E00F90DF91CF91089567EC71E0B9
S11302B00E94B3010895CF93DF9380917D019091C3
S11302C07E01FC01EE57FE4F2081222399F08534F4
S11302D0910584F49C012F5F3F4F30937E0120935E
S11302E07D01FC01EE57FE4FC0810E94D700C093F0
S11302F0C60012C00E94D700C6ECD0E08DE088830F
S11303000E94D7008AE0888310927E0110927D01BA
S1130310109282010E941601DF91CF910895DC01B1
S1130320FC0101900020E9F73197E81BF90B90914B
S113033081019F5FE90FE0938101E53430F4BD0151
S113034082E891E00E94A801089510928101089525
S1130350FB01DC010D900020E9F7119701900D924B
S11303600020E1F70895FB01DC0101900D920020CB
S10B0370E1F70895F894FFCFB2
S11303784E6F20736520706F72207175652C207024
S113038865726F206D65206E65636573697461734A
S1130398200D0A000D0A4861737461206163612CA1
S10F03A820746F646F206269656E0000B1
S9030000FC
