S011000067656E657261646F722E737265635C
S11300000C9434000C9451000C9451000C94510045
S11300100C9451000C9451000C9451000C94510018
S11300200C9451000C9451000C9451000C94510008
S11300300C9451000C9451000C9451000C945100F8
S11300400C9451000C9451000C946D000C945100CC
S11300500C9493000C9451000C9451000C94510096
S11300600C9451000C94510011241FBECFEFD8E022
S1130070DEBFCDBF11E0A0E0B1E0E4E7F3E002C0F1
S113008005900D92AA31B107D9F723E0AAE1B1E0B6
S113009001C01D92A036B207E1F70E9453000C94F0
S11300A0B8010C94000087E60E94020180911A01B5
S11300B08130E1F78BE191E00E9457018BE191E0FF
S11300C00E9493010E94100180E091E00E9493013C
S11300D00E94100110921A01E9CF1F920F920FB6DD
S11300E00F9211242F933F934F935F936F937F93BA
S11300F08F939F93AF93BF93EF93FF930E941C0141
S113010080931A01FF91EF91BF91AF919F918F91CD
S11301107F916F915F914F913F912F910F900FBEFF
S11301200F901F9018951F920F920FB60F921124E3
S11301302F933F934F935F936F937F938F939F93EB
S1130140AF93BF93EF93FF930E945C01FF91EF91F4
S1130150BF91AF919F918F917F916F915F914F91DB
S11301603F912F910F900FBE0F901F9018951092F2
S1130170C10096E09093C2001092C5008093C40021
S11301800895E1ECF0E08081886080830895E1ECDB
S1130190F0E08081806180830895E1ECF0E080816B
S11301A0806880830895E0ECF0E0808185FFFDCFD6
S11301B00895CF92DF92EF92FF920F931F93CF9304
S11301C0FC0120812223B1F07C018C01C0E00F2EC0
S11301D0F6ECCF2ED12CF02D0E94D300F8019081A3
S11301E0F6019083CF5F87010C0F111DF8019081F8
S11301F09111F2CFCF911F910F91FF90EF90DF906B
S1130200CF9008950E94B7000E94C1000E94C700C9
S11302100E94CD0087E191E00E94D900789408956E
S1130220E1ECF0E08081806480830895E1ECF0E00B
S113023080818F7B80830895CF93DF931F92CDB706
S1130240DEB78DE089838091C600898389818D30F2
S1130250F1F080915D0190915E018F3F910529F04D
S113026024F010925E0110925D0180915D019091E5
S11302705E019C012F5F3F4F30935E0120935D012F
S11302802981FC01E05AFD4F208380E00CC0E091FD
S11302905D01F0915E01E05AFD4F108210925E0103
S11302A010925D0181E00F90DF91CF91089560E697
S11302B072E00E94B1010895CF93DF9380915B01B6
S11302C090915C01FC01E05AFE4F20812223A1F0B1
S11302D08F3F910509F084F49C012F5F3F4F3093C9
S11302E05C0120935B01FC01E05AFE4FC0810E9437
S11302F0D300C093C60014C00E94D300C6ECD0E063
S11303008DE088830E94D3008AE0888310925C0188
S113031010925B011092600110925F010E9416011D
S1130320DF91CF910895FC0101900020E9F7319706
S1130330E81BF90B20915F012F5FE20FE0935F014F
S1130340BC0180E691E00E94A6010895FB01DC0156
S11303500D900020E9F7119701900D920020E1F72C
S11303600895FB01DC0101900D920020E1F708954E
S1070370F894FFCF2B
S11303740D0A4861737461206163612C20746F6495
S10D03846F206269656E000A000034
S9030000FC
